{"abi":[{"type":"constructor","inputs":[],"stateMutability":"nonpayable"},{"type":"function","name":"balances","inputs":[{"name":"","type":"address","internalType":"address"}],"outputs":[{"name":"","type":"uint256","internalType":"uint256"}],"stateMutability":"view"},{"type":"function","name":"deposit","inputs":[],"outputs":[],"stateMutability":"payable"},{"type":"function","name":"owner","inputs":[],"outputs":[{"name":"","type":"address","internalType":"address"}],"stateMutability":"view"},{"type":"function","name":"renounceOwnership","inputs":[],"outputs":[],"stateMutability":"nonpayable"},{"type":"function","name":"transferOwnership","inputs":[{"name":"newOwner","type":"address","internalType":"address"}],"outputs":[],"stateMutability":"nonpayable"},{"type":"function","name":"withdraw","inputs":[{"name":"to","type":"address","internalType":"address payable"},{"name":"amount","type":"uint256","internalType":"uint256"}],"outputs":[],"stateMutability":"nonpayable"},{"type":"event","name":"Deposit","inputs":[{"name":"user","type":"address","indexed":true,"internalType":"address"},{"name":"amount","type":"uint256","indexed":false,"internalType":"uint256"}],"anonymous":false},{"type":"event","name":"OwnershipTransferred","inputs":[{"name":"previousOwner","type":"address","indexed":true,"internalType":"address"},{"name":"newOwner","type":"address","indexed":true,"internalType":"address"}],"anonymous":false},{"type":"event","name":"Withdraw","inputs":[{"name":"user","type":"address","indexed":true,"internalType":"address"},{"name":"to","type":"address","indexed":true,"internalType":"address"},{"name":"amount","type":"uint256","indexed":false,"internalType":"uint256"}],"anonymous":false},{"type":"error","name":"OwnableInvalidOwner","inputs":[{"name":"owner","type":"address","internalType":"address"}]},{"type":"error","name":"OwnableUnauthorizedAccount","inputs":[{"name":"account","type":"address","internalType":"address"}]}],"bytecode":{"object":"0x6080604052348015600f57600080fd5b503380603557604051631e4fbdf760e01b81526000600482015260240160405180910390fd5b603c816041565b506091565b600080546001600160a01b038381166001600160a01b0319831681178455604051919092169283917f8be0079c531659141344cd1fd0a4f28419497f9722a3daafe3b4186f6b6457e09190a35050565b610474806100a06000396000f3fe6080604052600436106100555760003560e01c806327e235e31461005a578063715018a61461009a5780638da5cb5b146100b1578063d0e30db0146100d9578063f2fde38b146100e1578063f3fef3a314610101575b600080fd5b34801561006657600080fd5b506100876100753660046103ac565b60016020526000908152604090205481565b6040519081526020015b60405180910390f35b3480156100a657600080fd5b506100af610121565b005b3480156100bd57600080fd5b506000546040516001600160a01b039091168152602001610091565b6100af610135565b3480156100ed57600080fd5b506100af6100fc3660046103ac565b6101e5565b34801561010d57600080fd5b506100af61011c3660046103d0565b610223565b61012961031a565b6101336000610347565b565b6000341161018a5760405162461bcd60e51b815260206004820181905260248201527f416d6f756e74206d7573742062652067726561746572207468616e207a65726f60448201526064015b60405180910390fd5b33600090815260016020526040812080543492906101a9908490610412565b909155505060405134815233907fe1fffcc4923d04b559f4d29a8bfc6cda04eb5b0d3c460751c2402c5c5cc9109c9060200160405180910390a2565b6101ed61031a565b6001600160a01b03811661021757604051631e4fbdf760e01b815260006004820152602401610181565b61022081610347565b50565b61022b61031a565b6000811161027b5760405162461bcd60e51b815260206004820181905260248201527f416d6f756e74206d7573742062652067726561746572207468616e207a65726f6044820152606401610181565b336000908152600160205260408120805483929061029a90849061042b565b90915550506040516001600160a01b0383169082156108fc029083906000818181858888f193505050501580156102d5573d6000803e3d6000fd5b506040518181526001600160a01b0383169033907f9b1bfa7fa9ee420a16e124f794c35ac9f90472acc99140eb2f6447c714cad8eb9060200160405180910390a35050565b6000546001600160a01b031633146101335760405163118cdaa760e01b8152336004820152602401610181565b600080546001600160a01b038381166001600160a01b0319831681178455604051919092169283917f8be0079c531659141344cd1fd0a4f28419497f9722a3daafe3b4186f6b6457e09190a35050565b6001600160a01b038116811461022057600080fd5b6000602082840312156103be57600080fd5b81356103c981610397565b9392505050565b600080604083850312156103e357600080fd5b82356103ee81610397565b946020939093013593505050565b634e487b7160e01b600052601160045260246000fd5b80820180821115610425576104256103fc565b92915050565b81810381811115610425576104256103fc56fea2646970667358221220e511919d0381694cd52607d685d0b2279d1bc3476e7defe16a4f86c8c4b66f4464736f6c63430008190033","linkReferences":{}},"methodIdentifiers":{"balances(address)":"27e235e3","deposit()":"d0e30db0","owner()":"8da5cb5b","renounceOwnership()":"715018a6","transferOwnership(address)":"f2fde38b","withdraw(address,uint256)":"f3fef3a3"},"id":27}